{
  "contractName": "Fundiction",
  "abi": [
    {
      "constant": true,
      "inputs": [],
      "name": "ended",
      "outputs": [
        {
          "name": "",
          "type": "bool"
        }
      ],
      "payable": false,
      "stateMutability": "view",
      "type": "function"
    },
    {
      "constant": true,
      "inputs": [],
      "name": "numInvestors",
      "outputs": [
        {
          "name": "",
          "type": "uint256"
        }
      ],
      "payable": false,
      "stateMutability": "view",
      "type": "function"
    },
    {
      "constant": true,
      "inputs": [],
      "name": "totalAmount",
      "outputs": [
        {
          "name": "",
          "type": "uint256"
        }
      ],
      "payable": false,
      "stateMutability": "view",
      "type": "function"
    },
    {
      "constant": true,
      "inputs": [],
      "name": "status",
      "outputs": [
        {
          "name": "",
          "type": "string"
        }
      ],
      "payable": false,
      "stateMutability": "view",
      "type": "function"
    },
    {
      "constant": true,
      "inputs": [],
      "name": "goalAmount",
      "outputs": [
        {
          "name": "",
          "type": "uint256"
        }
      ],
      "payable": false,
      "stateMutability": "view",
      "type": "function"
    },
    {
      "constant": true,
      "inputs": [],
      "name": "deadline",
      "outputs": [
        {
          "name": "",
          "type": "uint256"
        }
      ],
      "payable": false,
      "stateMutability": "view",
      "type": "function"
    },
    {
      "constant": true,
      "inputs": [],
      "name": "owner",
      "outputs": [
        {
          "name": "",
          "type": "address"
        }
      ],
      "payable": false,
      "stateMutability": "view",
      "type": "function"
    },
    {
      "constant": true,
      "inputs": [
        {
          "name": "",
          "type": "uint256"
        }
      ],
      "name": "investor",
      "outputs": [
        {
          "name": "addr",
          "type": "address"
        },
        {
          "name": "amount",
          "type": "uint256"
        }
      ],
      "payable": false,
      "stateMutability": "view",
      "type": "function"
    },
    {
      "inputs": [
        {
          "name": "_duration",
          "type": "uint256"
        },
        {
          "name": "_goalAmount",
          "type": "uint256"
        }
      ],
      "payable": false,
      "stateMutability": "nonpayable",
      "type": "constructor"
    },
    {
      "constant": false,
      "inputs": [],
      "name": "fund",
      "outputs": [],
      "payable": true,
      "stateMutability": "payable",
      "type": "function"
    },
    {
      "constant": false,
      "inputs": [],
      "name": "CheckGoalReached",
      "outputs": [],
      "payable": false,
      "stateMutability": "nonpayable",
      "type": "function"
    },
    {
      "constant": false,
      "inputs": [],
      "name": "kill",
      "outputs": [],
      "payable": false,
      "stateMutability": "nonpayable",
      "type": "function"
    }
  ],
  "bytecode": "0x608060405234801561001057600080fd5b50604051604080610aad8339810180604052810190808051906020019092919080519060200190929190505050336000806101000a81548173ffffffffffffffffffffffffffffffffffffffff021916908373ffffffffffffffffffffffffffffffffffffffff160217905550814201600281905550806005819055506040805190810160405280600781526020017f46756e64696e6700000000000000000000000000000000000000000000000000815250600390805190602001906100d892919061010b565b506000600460006101000a81548160ff0219169083151502179055506000600181905550600060068190555050506101b0565b828054600181600116156101000203166002900490600052602060002090601f016020900481019282601f1061014c57805160ff191683800117855561017a565b8280016001018555821561017a579182015b8281111561017957825182559160200191906001019061015e565b5b509050610187919061018b565b5090565b6101ad91905b808211156101a9576000816000905550600101610191565b5090565b90565b6108ee806101bf6000396000f3006080604052600436106100af576000357c0100000000000000000000000000000000000000000000000000000000900463ffffffff16806312fa6feb146100b4578063132ae5e9146100e35780631a39d8ef1461010e578063200d2ed2146101395780632636b945146101c957806329dcb0cf146101f457806341c0e1b51461021f57806388f995c8146102365780638da5cb5b1461024d578063b60d4288146102a4578063c3d9053b146102ae575b600080fd5b3480156100c057600080fd5b506100c9610322565b604051808215151515815260200191505060405180910390f35b3480156100ef57600080fd5b506100f8610335565b6040518082815260200191505060405180910390f35b34801561011a57600080fd5b5061012361033b565b6040518082815260200191505060405180910390f35b34801561014557600080fd5b5061014e610341565b6040518080602001828103825283818151815260200191508051906020019080838360005b8381101561018e578082015181840152602081019050610173565b50505050905090810190601f1680156101bb5780820380516001836020036101000a031916815260200191505b509250505060405180910390f35b3480156101d557600080fd5b506101de6103df565b6040518082815260200191505060405180910390f35b34801561020057600080fd5b506102096103e5565b6040518082815260200191505060405180910390f35b34801561022b57600080fd5b506102346103eb565b005b34801561024257600080fd5b5061024b610480565b005b34801561025957600080fd5b5061026261070e565b604051808273ffffffffffffffffffffffffffffffffffffffff1673ffffffffffffffffffffffffffffffffffffffff16815260200191505060405180910390f35b6102ac610733565b005b3480156102ba57600080fd5b506102d9600480360381019080803590602001909291905050506107d9565b604051808373ffffffffffffffffffffffffffffffffffffffff1673ffffffffffffffffffffffffffffffffffffffff1681526020018281526020019250505060405180910390f35b600460009054906101000a900460ff1681565b60015481565b60065481565b60038054600181600116156101000203166002900480601f0160208091040260200160405190810160405280929190818152602001828054600181600116156101000203166002900480156103d75780601f106103ac576101008083540402835291602001916103d7565b820191906000526020600020905b8154815290600101906020018083116103ba57829003601f168201915b505050505081565b60055481565b60025481565b6000809054906101000a900473ffffffffffffffffffffffffffffffffffffffff1673ffffffffffffffffffffffffffffffffffffffff163373ffffffffffffffffffffffffffffffffffffffff1614151561044657600080fd5b6000809054906101000a900473ffffffffffffffffffffffffffffffffffffffff1673ffffffffffffffffffffffffffffffffffffffff16ff5b60008060009054906101000a900473ffffffffffffffffffffffffffffffffffffffff1673ffffffffffffffffffffffffffffffffffffffff163373ffffffffffffffffffffffffffffffffffffffff161415156104dd57600080fd5b600460009054906101000a900460ff161515156104f957600080fd5b600254421015151561050a57600080fd5b6005546006541015156105fb576040805190810160405280601181526020017f43616d7069676e205375636365737365640000000000000000000000000000008152506003908051906020019061056292919061081d565b506001600460006101000a81548160ff0219169083151502179055506000809054906101000a900473ffffffffffffffffffffffffffffffffffffffff1673ffffffffffffffffffffffffffffffffffffffff166108fc3073ffffffffffffffffffffffffffffffffffffffff16319081150290604051600060405180830381858888f1935050505015156105f657600080fd5b61070b565b600090506040805190810160405280600f81526020017f43616d706169676e204661696c656400000000000000000000000000000000008152506003908051906020019061064a92919061081d565b506001600460006101000a81548160ff0219169083151502179055505b60015481101561070a576007600082815260200190815260200160002060000160009054906101000a900473ffffffffffffffffffffffffffffffffffffffff1673ffffffffffffffffffffffffffffffffffffffff166108fc60076000848152602001908152602001600020600101549081150290604051600060405180830381858888f1935050505015156106fd57600080fd5b8080600101915050610667565b5b50565b6000809054906101000a900473ffffffffffffffffffffffffffffffffffffffff1681565b6000600460009054906101000a900460ff1615151561075157600080fd5b60076000600160008154809291906001019190505581526020019081526020016000209050338160000160006101000a81548173ffffffffffffffffffffffffffffffffffffffff021916908373ffffffffffffffffffffffffffffffffffffffff160217905550348160010181905550806001015460066000828254019250508190555050565b60076020528060005260406000206000915090508060000160009054906101000a900473ffffffffffffffffffffffffffffffffffffffff16908060010154905082565b828054600181600116156101000203166002900490600052602060002090601f016020900481019282601f1061085e57805160ff191683800117855561088c565b8280016001018555821561088c579182015b8281111561088b578251825591602001919060010190610870565b5b509050610899919061089d565b5090565b6108bf91905b808211156108bb5760008160009055506001016108a3565b5090565b905600a165627a7a72305820351c2d37767e720e167423659fc8cbeb50f7acb9950a60a82c6a7b56900536940029",
  "source": "pragma solidity ^0.4.22;\r\n\r\ncontract Fundiction {\r\n\r\n  struct Investor {\r\n    address addr;\r\n    uint amount;\r\n  }\r\n\r\n  address public owner;\r\n  uint public numInvestors; //投資者數量\r\n  uint public deadline;\r\n  string public status; //活動狀態\r\n  bool public ended; // 活動是否結束\r\n  uint public goalAmount; // 目標\r\n  uint public totalAmount; // 投資總額\r\n\r\n  mapping (uint => Investor) public investor;\r\n\r\n  modifier  onlyOwner() {\r\n    require(msg.sender == owner);\r\n    _;\r\n  }\r\n\r\n  //construtor\r\n  function Fundiction(uint _duration,uint _goalAmount) public{\r\n    owner = msg.sender;\r\n    deadline = now + _duration;\r\n    goalAmount = _goalAmount;\r\n    status=\"Funding\";\r\n    ended =false;\r\n    numInvestors=0;\r\n    totalAmount=0;\r\n  }\r\n\r\n  //投資\r\n  function fund() payable public {\r\n    require(!ended);\r\n    Investor inv = investor[numInvestors++];\r\n    inv.addr = msg.sender;\r\n    inv.amount=msg.value;\r\n    totalAmount += inv.amount;\r\n  }\r\n\r\n  //檢查 目標是否完成\r\n  function CheckGoalReached()public onlyOwner {\r\n    require(!ended);\r\n    //截止時間還沒到就中斷\r\n    require(now>=deadline);\r\n\r\n    if(totalAmount >= goalAmount){\r\n      status=\"Campign Successed\";\r\n      ended=true;\r\n      //把合約的Ether發給Owner\r\n      if(!owner.send(this.balance)){\r\n        throw;\r\n      }\r\n    }else{\r\n      uint i =0;\r\n      status=\"Campaign Failed\";\r\n      ended=true;\r\n      //把Ether 退給投資者們\r\n      while(i<numInvestors){\r\n        if(! investor[i].addr.send(investor[i].amount)){\r\n          throw;\r\n        }\r\n        i++;\r\n      }\r\n    }\r\n  }\r\n\r\n  //銷毀合約\r\n  function kill() public onlyOwner {\r\n    selfdestruct(owner);\r\n  }\r\n\r\n}\r\n",
  "sourcePath": "C:\\Users\\james\\Desktop\\Geth\\Solidity\\Contracts\\contracts\\Fundiction.sol",
  "compiler": {
    "name": "solc",
    "version": "0.4.24+commit.e67f0147.Emscripten.clang"
  },
  "schemaVersion": "2.0.1",
  "updatedAt": "2018-11-24T17:58:13.592Z"
}