{
  "contractName": "ERC721Holder",
  "abi": [
    {
      "constant": false,
      "inputs": [
        {
          "name": "",
          "type": "address"
        },
        {
          "name": "",
          "type": "address"
        },
        {
          "name": "",
          "type": "uint256"
        },
        {
          "name": "",
          "type": "bytes"
        }
      ],
      "name": "onERC721Received",
      "outputs": [
        {
          "name": "",
          "type": "bytes4"
        }
      ],
      "payable": false,
      "stateMutability": "nonpayable",
      "type": "function"
    }
  ],
  "bytecode": "0x608060405234801561001057600080fd5b506101a7806100206000396000f300608060405260043610610041576000357c0100000000000000000000000000000000000000000000000000000000900463ffffffff168063150b7a0214610046575b600080fd5b34801561005257600080fd5b506100f7600480360381019080803573ffffffffffffffffffffffffffffffffffffffff169060200190929190803573ffffffffffffffffffffffffffffffffffffffff16906020019092919080359060200190929190803590602001908201803590602001908080601f016020809104026020016040519081016040528093929190818152602001838380828437820191505050505050919291929050505061014b565b60405180827bffffffffffffffffffffffffffffffffffffffffffffffffffffffff19167bffffffffffffffffffffffffffffffffffffffffffffffffffffffff1916815260200191505060405180910390f35b600063150b7a027c01000000000000000000000000000000000000000000000000000000000290509493505050505600a165627a7a7230582063d066525fe3d077d9590a406572309ac723291639b4bc9d7222399c1de09b230029",
  "source": "pragma solidity ^0.4.24;\n\nimport \"./IERC721Receiver.sol\";\n\ncontract ERC721Holder is IERC721Receiver {\n  function onERC721Received(\n    address,\n    address,\n    uint256,\n    bytes\n  )\n    public\n    returns(bytes4)\n  {\n    return this.onERC721Received.selector;\n  }\n}\n",
  "sourcePath": "C:\\Users\\james\\Desktop\\Geth\\Solidity\\hello\\contracts\\node_modules\\openzeppelin-solidity\\contracts\\token\\ERC721\\ERC721Holder.sol",
  "compiler": {
    "name": "solc",
    "version": "0.4.24+commit.e67f0147.Emscripten.clang"
  },
  "schemaVersion": "2.0.1",
  "updatedAt": "2018-11-21T15:13:06.731Z"
}