{
  "contractName": "hello",
  "abi": [
    {
      "constant": false,
      "inputs": [],
      "name": "Say",
      "outputs": [
        {
          "name": "",
          "type": "string"
        }
      ],
      "payable": false,
      "stateMutability": "nonpayable",
      "type": "function"
    },
    {
      "constant": false,
      "inputs": [
        {
          "name": "name",
          "type": "string"
        }
      ],
      "name": "echo",
      "outputs": [
        {
          "name": "",
          "type": "string"
        }
      ],
      "payable": false,
      "stateMutability": "nonpayable",
      "type": "function"
    }
  ],
  "bytecode": "0x608060405234801561001057600080fd5b50610236806100206000396000f30060806040526004361061004c576000357c0100000000000000000000000000000000000000000000000000000000900463ffffffff168063f15da72914610051578063fe0e42a814610133575b600080fd5b34801561005d57600080fd5b506100b8600480360381019080803590602001908201803590602001908080601f01602080910402602001604051908101604052809392919081815260200183838082843782019150505050505091929192905050506101c3565b6040518080602001828103825283818151815260200191508051906020019080838360005b838110156100f85780820151818401526020810190506100dd565b50505050905090810190601f1680156101255780820380516001836020036101000a031916815260200191505b509250505060405180910390f35b34801561013f57600080fd5b506101486101cd565b6040518080602001828103825283818151815260200191508051906020019080838360005b8381101561018857808201518184015260208101905061016d565b50505050905090810190601f1680156101b55780820380516001836020036101000a031916815260200191505b509250505060405180910390f35b6060819050919050565b60606040805190810160405280600581526020017f48656c6c6f0000000000000000000000000000000000000000000000000000008152509050905600a165627a7a723058207b26f7e528a5b4fa119dfe8ed45b07498c834157c625070693cb51120f7e07b90029",
  "source": "pragma solidity ^0.4.24;\r\n\r\ncontract hello {\r\n    function Say() public returns (string) {\r\n      return (\"Hello\");\r\n    }\r\n    function echo(string name) public returns(string){\r\n      return name;\r\n    }\r\n}\r\n",
  "sourcePath": "C:\\Users\\james\\Desktop\\Geth\\Solidity\\hello\\contracts\\hello.sol",
  "compiler": {
    "name": "solc",
    "version": "0.4.24+commit.e67f0147.Emscripten.clang"
  },
  "schemaVersion": "2.0.1",
  "updatedAt": "2018-11-21T15:13:07.662Z"
}